{
  "_format": "hh-sol-artifact-1",
  "contractName": "BlankAdapter",
  "sourceName": "contracts/adapters/BlankAdapter.sol",
  "abi": [
    {
      "anonymous": false,
      "inputs": [
        {
          "indexed": true,
          "internalType": "address",
          "name": "previousOwner",
          "type": "address"
        },
        {
          "indexed": true,
          "internalType": "address",
          "name": "newOwner",
          "type": "address"
        }
      ],
      "name": "OwnershipTransferred",
      "type": "event"
    },
    {
      "inputs": [
        {
          "internalType": "address",
          "name": "_new_admin",
          "type": "address"
        }
      ],
      "name": "addApprovedAdmin",
      "outputs": [
        {
          "internalType": "address",
          "name": "",
          "type": "address"
        }
      ],
      "stateMutability": "nonpayable",
      "type": "function"
    },
    {
      "inputs": [],
      "name": "getPoolAddress",
      "outputs": [
        {
          "internalType": "address",
          "name": "",
          "type": "address"
        }
      ],
      "stateMutability": "view",
      "type": "function"
    },
    {
      "inputs": [
        {
          "internalType": "address",
          "name": "_from",
          "type": "address"
        },
        {
          "internalType": "uint256",
          "name": "_max_amount",
          "type": "uint256"
        }
      ],
      "name": "getPoolShare",
      "outputs": [
        {
          "internalType": "uint256",
          "name": "",
          "type": "uint256"
        }
      ],
      "stateMutability": "nonpayable",
      "type": "function"
    },
    {
      "inputs": [
        {
          "internalType": "address",
          "name": "_owner",
          "type": "address"
        },
        {
          "internalType": "address",
          "name": "_pool_address",
          "type": "address"
        }
      ],
      "name": "initialize",
      "outputs": [],
      "stateMutability": "nonpayable",
      "type": "function"
    },
    {
      "inputs": [],
      "name": "owner",
      "outputs": [
        {
          "internalType": "address",
          "name": "",
          "type": "address"
        }
      ],
      "stateMutability": "view",
      "type": "function"
    },
    {
      "inputs": [
        {
          "internalType": "address",
          "name": "_admin",
          "type": "address"
        }
      ],
      "name": "removeApprovedAdmin",
      "outputs": [
        {
          "internalType": "address",
          "name": "",
          "type": "address"
        }
      ],
      "stateMutability": "nonpayable",
      "type": "function"
    },
    {
      "inputs": [],
      "name": "renounceOwnership",
      "outputs": [],
      "stateMutability": "nonpayable",
      "type": "function"
    },
    {
      "inputs": [
        {
          "internalType": "address",
          "name": "_from",
          "type": "address"
        },
        {
          "internalType": "address",
          "name": "_pool_address",
          "type": "address"
        }
      ],
      "name": "setPoolAddress",
      "outputs": [
        {
          "internalType": "address",
          "name": "",
          "type": "address"
        }
      ],
      "stateMutability": "nonpayable",
      "type": "function"
    },
    {
      "inputs": [
        {
          "internalType": "address",
          "name": "_pool_address",
          "type": "address"
        }
      ],
      "name": "setPoolAddress",
      "outputs": [
        {
          "internalType": "address",
          "name": "",
          "type": "address"
        }
      ],
      "stateMutability": "nonpayable",
      "type": "function"
    },
    {
      "inputs": [
        {
          "internalType": "address",
          "name": "newOwner",
          "type": "address"
        }
      ],
      "name": "transferOwnership",
      "outputs": [],
      "stateMutability": "nonpayable",
      "type": "function"
    }
  ],
  "bytecode": "0x608060405234801561001057600080fd5b50611085806100206000396000f3fe608060405234801561001057600080fd5b50600436106100be5760003560e01c8063bd9caa5811610076578063f2fde38b1161005b578063f2fde38b146101d7578063f4006519146101fd578063f586c6d914610223576100be565b8063bd9caa5814610173578063e9e15b4f146101b1576100be565b8063715018a6116100a7578063715018a61461013d578063771901a5146101455780638da5cb5b1461016b576100be565b8063485cc955146100c35780635894ffcf146100f3575b600080fd5b6100f1600480360360408110156100d957600080fd5b506001600160a01b038135811691602001351661022b565b005b6101216004803603604081101561010957600080fd5b506001600160a01b0381358116916020013516610340565b604080516001600160a01b039092168252519081900360200190f35b6100f1610476565b6101216004803603602081101561015b57600080fd5b50356001600160a01b0316610534565b6101216106e2565b61019f6004803603604081101561018957600080fd5b506001600160a01b0381351690602001356106f1565b60408051918252519081900360200190f35b610121600480360360208110156101c757600080fd5b50356001600160a01b031661076d565b6100f1600480360360208110156101ed57600080fd5b50356001600160a01b031661087b565b6101216004803603602081101561021357600080fd5b50356001600160a01b0316610990565b610121610b0d565b600054610100900460ff16806102445750610244610bb2565b80610252575060005460ff16155b61028d5760405162461bcd60e51b815260040180806020018281038252602e815260200180610fd8602e913960400191505060405180910390fd5b600054610100900460ff161580156102b8576000805460ff1961ff0019909116610100171660011790555b606680546001600160a01b038085166001600160a01b031992831617909255606580546001810182556000919091527f8ff97419363ffd7000167f130ef7168fbea05faf9251824ca5043f113cc6a7c701805492861692909116919091179055610320610bc3565b6103298361087b565b801561033b576000805461ff00191690555b505050565b6000336000805b60655481101561039057826001600160a01b03166065828154811061036857fe5b6000918252602090912001546001600160a01b0316141561038857600191505b600101610347565b506001811515146103d25760405162461bcd60e51b81526004018080602001828103825260298152602001806110276029913960400191505060405180910390fd5b846000805b60655481101561042057826001600160a01b0316606582815481106103f857fe5b6000918252602090912001546001600160a01b0316141561041857600191505b6001016103d7565b506001811515146104625760405162461bcd60e51b81526004018080602001828103825260298152602001806110276029913960400191505060405180910390fd5b61046b8661076d565b979650505050505050565b61047e610c75565b6001600160a01b031661048f6106e2565b6001600160a01b0316146104ea576040805162461bcd60e51b815260206004820181905260248201527f4f776e61626c653a2063616c6c6572206973206e6f7420746865206f776e6572604482015290519081900360640190fd5b6033546040516000916001600160a01b0316907f8be0079c531659141344cd1fd0a4f28419497f9722a3daafe3b4186f6b6457e0908390a3603380546001600160a01b0319169055565b6000816000805b60655481101561058457826001600160a01b03166065828154811061055c57fe5b6000918252602090912001546001600160a01b0316141561057c57600191505b60010161053b565b5080156105c25760405162461bcd60e51b815260040180806020018281038252602d815260200180610fab602d913960400191505060405180910390fd5b6105ca610c75565b6001600160a01b03166105db6106e2565b6001600160a01b031614610636576040805162461bcd60e51b815260206004820181905260248201527f4f776e61626c653a2063616c6c6572206973206e6f7420746865206f776e6572604482015290519081900360640190fd5b6001600160a01b038416610691576040805162461bcd60e51b815260206004820152601760248201527f4d75737420626520612076616c69642061646472657373000000000000000000604482015290519081900360640190fd5b5050606580546001810182556000919091527f8ff97419363ffd7000167f130ef7168fbea05faf9251824ca5043f113cc6a7c70180546001600160a01b0319166001600160a01b0384161790555090565b6033546001600160a01b031690565b60008160008111610749576040805162461bcd60e51b815260206004820181905260248201527f496e707574206d7573742062652067726561746572207468616e207a65726f2e604482015290519081900360640190fd5b6103e860008061075b81846003610c79565b905061046b8187026103e86002610c79565b6000336000805b6065548110156107bd57826001600160a01b03166065828154811061079557fe5b6000918252602090912001546001600160a01b031614156107b557600191505b600101610774565b506001811515146107ff5760405162461bcd60e51b81526004018080602001828103825260298152602001806110276029913960400191505060405180910390fd5b6001600160a01b03841661085a576040805162461bcd60e51b815260206004820152601760248201527f4d75737420626520612076616c69642061646472657373000000000000000000604482015290519081900360640190fd5b5050606680546001600160a01b0319166001600160a01b0384161790555090565b610883610c75565b6001600160a01b03166108946106e2565b6001600160a01b0316146108ef576040805162461bcd60e51b815260206004820181905260248201527f4f776e61626c653a2063616c6c6572206973206e6f7420746865206f776e6572604482015290519081900360640190fd5b6001600160a01b0381166109345760405162461bcd60e51b8152600401808060200182810382526026815260200180610f856026913960400191505060405180910390fd5b6033546040516001600160a01b038084169216907f8be0079c531659141344cd1fd0a4f28419497f9722a3daafe3b4186f6b6457e090600090a3603380546001600160a01b0319166001600160a01b0392909216919091179055565b6000816000805b6065548110156109e057826001600160a01b0316606582815481106109b857fe5b6000918252602090912001546001600160a01b031614156109d857600191505b600101610997565b50600181151514610a225760405162461bcd60e51b81526004018080602001828103825260298152602001806110276029913960400191505060405180910390fd5b610a2a610c75565b6001600160a01b0316610a3b6106e2565b6001600160a01b031614610a96576040805162461bcd60e51b815260206004820181905260248201527f4f776e61626c653a2063616c6c6572206973206e6f7420746865206f776e6572604482015290519081900360640190fd5b60005b606554811015610b0457846001600160a01b031660658281548110610aba57fe5b6000918252602090912001546001600160a01b03161415610afc5760658181548110610ae257fe5b600091825260209091200180546001600160a01b03191690555b600101610a99565b50929392505050565b6000336000805b606554811015610b5d57826001600160a01b031660658281548110610b3557fe5b6000918252602090912001546001600160a01b03161415610b5557600191505b600101610b14565b50600181151514610b9f5760405162461bcd60e51b81526004018080602001828103825260298152602001806110276029913960400191505060405180910390fd5b6066546001600160a01b03169250505090565b6000610bbd30610cc2565b15905090565b600054610100900460ff1680610bdc5750610bdc610bb2565b80610bea575060005460ff16155b610c255760405162461bcd60e51b815260040180806020018281038252602e815260200180610fd8602e913960400191505060405180910390fd5b600054610100900460ff16158015610c50576000805460ff1961ff0019909116610100171660011790555b610c58610cc8565b610c60610d68565b8015610c72576000805461ff00191690555b50565b3390565b600080610c94610c8a846001610e61565b8690600a0a610ec4565b90506000610cb8600a610cb26005610cac868a610f1d565b90610e61565b90610f1d565b9695505050505050565b3b151590565b600054610100900460ff1680610ce15750610ce1610bb2565b80610cef575060005460ff16155b610d2a5760405162461bcd60e51b815260040180806020018281038252602e815260200180610fd8602e913960400191505060405180910390fd5b600054610100900460ff16158015610c60576000805460ff1961ff0019909116610100171660011790558015610c72576000805461ff001916905550565b600054610100900460ff1680610d815750610d81610bb2565b80610d8f575060005460ff16155b610dca5760405162461bcd60e51b815260040180806020018281038252602e815260200180610fd8602e913960400191505060405180910390fd5b600054610100900460ff16158015610df5576000805460ff1961ff0019909116610100171660011790555b6000610dff610c75565b603380546001600160a01b0319166001600160a01b038316908117909155604051919250906000907f8be0079c531659141344cd1fd0a4f28419497f9722a3daafe3b4186f6b6457e0908290a3508015610c72576000805461ff001916905550565b600082820183811015610ebb576040805162461bcd60e51b815260206004820152601b60248201527f536166654d6174683a206164646974696f6e206f766572666c6f770000000000604482015290519081900360640190fd5b90505b92915050565b600082610ed357506000610ebe565b82820282848281610ee057fe5b0414610ebb5760405162461bcd60e51b81526004018080602001828103825260218152602001806110066021913960400191505060405180910390fd5b6000808211610f73576040805162461bcd60e51b815260206004820152601a60248201527f536166654d6174683a206469766973696f6e206279207a65726f000000000000604482015290519081900360640190fd5b818381610f7c57fe5b04939250505056fe4f776e61626c653a206e6577206f776e657220697320746865207a65726f206164647265737346756e6374696f6e2063616c6c6572206d757374206e6f7420626520616e20616461707465722061646d696e2e496e697469616c697a61626c653a20636f6e747261637420697320616c726561647920696e697469616c697a6564536166654d6174683a206d756c7469706c69636174696f6e206f766572666c6f7746756e6374696f6e2063616c6c6572206d75737420626520616e20616461707465722061646d696e2ea26469706673582212209eafc2838da9619b4b1a61aa68fc56c598f421a2c24bd3fb33a0562d41f5eae664736f6c63430007030033",
  "linkReferences": {},
  "deployedLinkReferences": {}
}