{
    "_format": "hh-sol-artifact-1",
    "contractName": "Faucet",
    "sourceName": "contracts/Faucet.sol",
    "abi": [
        {
            "anonymous": false,
            "inputs": [
                {
                    "indexed": true,
                    "internalType": "address",
                    "name": "account",
                    "type": "address"
                },
                {
                    "indexed": true,
                    "internalType": "address",
                    "name": "operator",
                    "type": "address"
                },
                {
                    "indexed": false,
                    "internalType": "bool",
                    "name": "approved",
                    "type": "bool"
                }
            ],
            "name": "ApprovalForAll",
            "type": "event"
        },
        {
            "anonymous": false,
            "inputs": [
                {
                    "indexed": true,
                    "internalType": "address",
                    "name": "previousOwner",
                    "type": "address"
                },
                {
                    "indexed": true,
                    "internalType": "address",
                    "name": "newOwner",
                    "type": "address"
                }
            ],
            "name": "OwnershipTransferred",
            "type": "event"
        },
        {
            "anonymous": false,
            "inputs": [
                {
                    "indexed": false,
                    "internalType": "address",
                    "name": "account",
                    "type": "address"
                }
            ],
            "name": "Paused",
            "type": "event"
        },
        {
            "anonymous": false,
            "inputs": [
                {
                    "indexed": false,
                    "internalType": "address",
                    "name": "_from",
                    "type": "address"
                }
            ],
            "name": "RugPull",
            "type": "event"
        },
        {
            "anonymous": false,
            "inputs": [
                {
                    "indexed": false,
                    "internalType": "address",
                    "name": "from",
                    "type": "address"
                },
                {
                    "indexed": false,
                    "internalType": "uint256",
                    "name": "level",
                    "type": "uint256"
                },
                {
                    "indexed": false,
                    "internalType": "address",
                    "name": "user",
                    "type": "address"
                }
            ],
            "name": "SetUserTrancheEvent",
            "type": "event"
        },
        {
            "anonymous": false,
            "inputs": [
                {
                    "indexed": false,
                    "internalType": "uint256[]",
                    "name": "ids",
                    "type": "uint256[]"
                },
                {
                    "indexed": false,
                    "internalType": "bytes",
                    "name": "data",
                    "type": "bytes"
                }
            ],
            "name": "TokenRedemption",
            "type": "event"
        },
        {
            "anonymous": false,
            "inputs": [
                {
                    "indexed": false,
                    "internalType": "address",
                    "name": "from",
                    "type": "address"
                },
                {
                    "indexed": false,
                    "internalType": "uint256",
                    "name": "level",
                    "type": "uint256"
                },
                {
                    "indexed": false,
                    "internalType": "uint256[]",
                    "name": "ids",
                    "type": "uint256[]"
                },
                {
                    "indexed": false,
                    "internalType": "string",
                    "name": "uri",
                    "type": "string"
                },
                {
                    "indexed": false,
                    "internalType": "bool",
                    "name": "enabled",
                    "type": "bool"
                }
            ],
            "name": "TrancheCreated",
            "type": "event"
        },
        {
            "anonymous": false,
            "inputs": [
                {
                    "indexed": false,
                    "internalType": "address",
                    "name": "from",
                    "type": "address"
                },
                {
                    "indexed": false,
                    "internalType": "uint256",
                    "name": "level",
                    "type": "uint256"
                }
            ],
            "name": "TrancheDeleted",
            "type": "event"
        },
        {
            "anonymous": false,
            "inputs": [
                {
                    "indexed": false,
                    "internalType": "address",
                    "name": "from",
                    "type": "address"
                },
                {
                    "indexed": false,
                    "internalType": "uint256",
                    "name": "level",
                    "type": "uint256"
                },
                {
                    "indexed": false,
                    "internalType": "uint256",
                    "name": "id",
                    "type": "uint256"
                },
                {
                    "indexed": false,
                    "internalType": "uint256",
                    "name": "amount",
                    "type": "uint256"
                }
            ],
            "name": "TrancheIdAmountUpdate",
            "type": "event"
        },
        {
            "anonymous": false,
            "inputs": [
                {
                    "indexed": false,
                    "internalType": "address",
                    "name": "from",
                    "type": "address"
                },
                {
                    "indexed": false,
                    "internalType": "uint256",
                    "name": "level",
                    "type": "uint256"
                },
                {
                    "indexed": false,
                    "internalType": "string",
                    "name": "uri",
                    "type": "string"
                },
                {
                    "indexed": false,
                    "internalType": "bool",
                    "name": "enabled",
                    "type": "bool"
                }
            ],
            "name": "TrancheUpdate",
            "type": "event"
        },
        {
            "anonymous": false,
            "inputs": [
                {
                    "indexed": true,
                    "internalType": "address",
                    "name": "operator",
                    "type": "address"
                },
                {
                    "indexed": true,
                    "internalType": "address",
                    "name": "from",
                    "type": "address"
                },
                {
                    "indexed": true,
                    "internalType": "address",
                    "name": "to",
                    "type": "address"
                },
                {
                    "indexed": false,
                    "internalType": "uint256[]",
                    "name": "ids",
                    "type": "uint256[]"
                },
                {
                    "indexed": false,
                    "internalType": "uint256[]",
                    "name": "values",
                    "type": "uint256[]"
                }
            ],
            "name": "TransferBatch",
            "type": "event"
        },
        {
            "anonymous": false,
            "inputs": [
                {
                    "indexed": true,
                    "internalType": "address",
                    "name": "operator",
                    "type": "address"
                },
                {
                    "indexed": true,
                    "internalType": "address",
                    "name": "from",
                    "type": "address"
                },
                {
                    "indexed": true,
                    "internalType": "address",
                    "name": "to",
                    "type": "address"
                },
                {
                    "indexed": false,
                    "internalType": "uint256",
                    "name": "id",
                    "type": "uint256"
                },
                {
                    "indexed": false,
                    "internalType": "uint256",
                    "name": "value",
                    "type": "uint256"
                }
            ],
            "name": "TransferSingle",
            "type": "event"
        },
        {
            "anonymous": false,
            "inputs": [
                {
                    "indexed": false,
                    "internalType": "string",
                    "name": "value",
                    "type": "string"
                },
                {
                    "indexed": true,
                    "internalType": "uint256",
                    "name": "id",
                    "type": "uint256"
                }
            ],
            "name": "URI",
            "type": "event"
        },
        {
            "anonymous": false,
            "inputs": [
                {
                    "indexed": false,
                    "internalType": "address",
                    "name": "account",
                    "type": "address"
                }
            ],
            "name": "Unpaused",
            "type": "event"
        },
        {
            "inputs": [],
            "name": "_claw",
            "outputs": [],
            "stateMutability": "nonpayable",
            "type": "function"
        },
        {
            "inputs": [
                {
                    "internalType": "address",
                    "name": "account",
                    "type": "address"
                },
                {
                    "internalType": "uint256",
                    "name": "id",
                    "type": "uint256"
                }
            ],
            "name": "balanceOf",
            "outputs": [
                {
                    "internalType": "uint256",
                    "name": "",
                    "type": "uint256"
                }
            ],
            "stateMutability": "view",
            "type": "function"
        },
        {
            "inputs": [
                {
                    "internalType": "address[]",
                    "name": "accounts",
                    "type": "address[]"
                },
                {
                    "internalType": "uint256[]",
                    "name": "ids",
                    "type": "uint256[]"
                }
            ],
            "name": "balanceOfBatch",
            "outputs": [
                {
                    "internalType": "uint256[]",
                    "name": "",
                    "type": "uint256[]"
                }
            ],
            "stateMutability": "view",
            "type": "function"
        },
        {
            "inputs": [
                {
                    "internalType": "uint256",
                    "name": "_level",
                    "type": "uint256"
                },
                {
                    "internalType": "uint256[]",
                    "name": "_ids",
                    "type": "uint256[]"
                },
                {
                    "internalType": "string",
                    "name": "_tranche_uri",
                    "type": "string"
                },
                {
                    "internalType": "bool",
                    "name": "_enabled",
                    "type": "bool"
                }
            ],
            "name": "createTranche",
            "outputs": [
                {
                    "internalType": "uint256",
                    "name": "",
                    "type": "uint256"
                }
            ],
            "stateMutability": "nonpayable",
            "type": "function"
        },
        {
            "inputs": [
                {
                    "internalType": "uint256",
                    "name": "_level",
                    "type": "uint256"
                }
            ],
            "name": "deleteTranche",
            "outputs": [
                {
                    "internalType": "uint256",
                    "name": "",
                    "type": "uint256"
                }
            ],
            "stateMutability": "nonpayable",
            "type": "function"
        },
        {
            "inputs": [],
            "name": "getAdapterAddress",
            "outputs": [
                {
                    "internalType": "address",
                    "name": "",
                    "type": "address"
                }
            ],
            "stateMutability": "view",
            "type": "function"
        },
        {
            "inputs": [],
            "name": "getPoolAddress",
            "outputs": [
                {
                    "internalType": "address",
                    "name": "",
                    "type": "address"
                }
            ],
            "stateMutability": "view",
            "type": "function"
        },
        {
            "inputs": [
                {
                    "internalType": "address",
                    "name": "_from",
                    "type": "address"
                },
                {
                    "internalType": "uint256",
                    "name": "_max_amount",
                    "type": "uint256"
                }
            ],
            "name": "getPoolShare",
            "outputs": [
                {
                    "internalType": "uint256",
                    "name": "",
                    "type": "uint256"
                }
            ],
            "stateMutability": "nonpayable",
            "type": "function"
        },
        {
            "inputs": [],
            "name": "getTotalNumberTokens",
            "outputs": [
                {
                    "internalType": "uint256",
                    "name": "",
                    "type": "uint256"
                }
            ],
            "stateMutability": "view",
            "type": "function"
        },
        {
            "inputs": [
                {
                    "internalType": "uint256",
                    "name": "_level",
                    "type": "uint256"
                }
            ],
            "name": "getTrancheEnabled",
            "outputs": [
                {
                    "internalType": "bool",
                    "name": "",
                    "type": "bool"
                }
            ],
            "stateMutability": "view",
            "type": "function"
        },
        {
            "inputs": [
                {
                    "internalType": "uint256",
                    "name": "_level",
                    "type": "uint256"
                }
            ],
            "name": "getTrancheExists",
            "outputs": [
                {
                    "internalType": "bool",
                    "name": "",
                    "type": "bool"
                }
            ],
            "stateMutability": "view",
            "type": "function"
        },
        {
            "inputs": [
                {
                    "internalType": "uint256",
                    "name": "_level",
                    "type": "uint256"
                },
                {
                    "internalType": "uint256",
                    "name": "_id",
                    "type": "uint256"
                }
            ],
            "name": "getTrancheIdAmounts",
            "outputs": [
                {
                    "internalType": "uint256",
                    "name": "",
                    "type": "uint256"
                }
            ],
            "stateMutability": "view",
            "type": "function"
        },
        {
            "inputs": [
                {
                    "internalType": "uint256",
                    "name": "_level",
                    "type": "uint256"
                }
            ],
            "name": "getTrancheUri",
            "outputs": [
                {
                    "internalType": "string",
                    "name": "",
                    "type": "string"
                }
            ],
            "stateMutability": "view",
            "type": "function"
        },
        {
            "inputs": [
                {
                    "internalType": "address",
                    "name": "_user",
                    "type": "address"
                }
            ],
            "name": "getUserTrancheLevel",
            "outputs": [
                {
                    "internalType": "uint256",
                    "name": "",
                    "type": "uint256"
                }
            ],
            "stateMutability": "view",
            "type": "function"
        },
        {
            "inputs": [
                {
                    "internalType": "address",
                    "name": "_owner",
                    "type": "address"
                },
                {
                    "internalType": "string",
                    "name": "_uri",
                    "type": "string"
                },
                {
                    "internalType": "address",
                    "name": "_adapter_address",
                    "type": "address"
                }
            ],
            "name": "initialize",
            "outputs": [],
            "stateMutability": "nonpayable",
            "type": "function"
        },
        {
            "inputs": [
                {
                    "internalType": "address",
                    "name": "account",
                    "type": "address"
                },
                {
                    "internalType": "address",
                    "name": "operator",
                    "type": "address"
                }
            ],
            "name": "isApprovedForAll",
            "outputs": [
                {
                    "internalType": "bool",
                    "name": "",
                    "type": "bool"
                }
            ],
            "stateMutability": "view",
            "type": "function"
        },
        {
            "inputs": [],
            "name": "maxTokenId",
            "outputs": [
                {
                    "internalType": "uint256",
                    "name": "",
                    "type": "uint256"
                }
            ],
            "stateMutability": "view",
            "type": "function"
        },
        {
            "inputs": [
                {
                    "internalType": "uint256",
                    "name": "_id",
                    "type": "uint256"
                },
                {
                    "internalType": "uint256",
                    "name": "_amount",
                    "type": "uint256"
                },
                {
                    "internalType": "bytes",
                    "name": "_uri_data",
                    "type": "bytes"
                }
            ],
            "name": "mintItem",
            "outputs": [
                {
                    "internalType": "uint256",
                    "name": "",
                    "type": "uint256"
                }
            ],
            "stateMutability": "nonpayable",
            "type": "function"
        },
        {
            "inputs": [
                {
                    "internalType": "uint256",
                    "name": "",
                    "type": "uint256"
                }
            ],
            "name": "numTokensById",
            "outputs": [
                {
                    "internalType": "uint256",
                    "name": "",
                    "type": "uint256"
                }
            ],
            "stateMutability": "view",
            "type": "function"
        },
        {
            "inputs": [],
            "name": "owner",
            "outputs": [
                {
                    "internalType": "address",
                    "name": "",
                    "type": "address"
                }
            ],
            "stateMutability": "view",
            "type": "function"
        },
        {
            "inputs": [],
            "name": "pause",
            "outputs": [],
            "stateMutability": "nonpayable",
            "type": "function"
        },
        {
            "inputs": [],
            "name": "paused",
            "outputs": [
                {
                    "internalType": "bool",
                    "name": "",
                    "type": "bool"
                }
            ],
            "stateMutability": "view",
            "type": "function"
        },
        {
            "inputs": [
                {
                    "internalType": "uint256[]",
                    "name": "_ids",
                    "type": "uint256[]"
                },
                {
                    "internalType": "bytes",
                    "name": "_data",
                    "type": "bytes"
                }
            ],
            "name": "redeem",
            "outputs": [
                {
                    "internalType": "bool",
                    "name": "",
                    "type": "bool"
                }
            ],
            "stateMutability": "nonpayable",
            "type": "function"
        },
        {
            "inputs": [],
            "name": "renounceOwnership",
            "outputs": [],
            "stateMutability": "nonpayable",
            "type": "function"
        },
        {
            "inputs": [],
            "name": "rugPull",
            "outputs": [],
            "stateMutability": "nonpayable",
            "type": "function"
        },
        {
            "inputs": [
                {
                    "internalType": "address",
                    "name": "from",
                    "type": "address"
                },
                {
                    "internalType": "address",
                    "name": "to",
                    "type": "address"
                },
                {
                    "internalType": "uint256[]",
                    "name": "ids",
                    "type": "uint256[]"
                },
                {
                    "internalType": "uint256[]",
                    "name": "amounts",
                    "type": "uint256[]"
                },
                {
                    "internalType": "bytes",
                    "name": "data",
                    "type": "bytes"
                }
            ],
            "name": "safeBatchTransferFrom",
            "outputs": [],
            "stateMutability": "nonpayable",
            "type": "function"
        },
        {
            "inputs": [
                {
                    "internalType": "address",
                    "name": "from",
                    "type": "address"
                },
                {
                    "internalType": "address",
                    "name": "to",
                    "type": "address"
                },
                {
                    "internalType": "uint256",
                    "name": "id",
                    "type": "uint256"
                },
                {
                    "internalType": "uint256",
                    "name": "amount",
                    "type": "uint256"
                },
                {
                    "internalType": "bytes",
                    "name": "data",
                    "type": "bytes"
                }
            ],
            "name": "safeTransferFrom",
            "outputs": [],
            "stateMutability": "nonpayable",
            "type": "function"
        },
        {
            "inputs": [
                {
                    "internalType": "address",
                    "name": "_adapter_address",
                    "type": "address"
                }
            ],
            "name": "setAdapterAddress",
            "outputs": [
                {
                    "internalType": "address",
                    "name": "",
                    "type": "address"
                }
            ],
            "stateMutability": "nonpayable",
            "type": "function"
        },
        {
            "inputs": [
                {
                    "internalType": "address",
                    "name": "_user",
                    "type": "address"
                },
                {
                    "internalType": "bool",
                    "name": "_approved",
                    "type": "bool"
                }
            ],
            "name": "setApproval",
            "outputs": [],
            "stateMutability": "nonpayable",
            "type": "function"
        },
        {
            "inputs": [
                {
                    "internalType": "address",
                    "name": "operator",
                    "type": "address"
                },
                {
                    "internalType": "bool",
                    "name": "approved",
                    "type": "bool"
                }
            ],
            "name": "setApprovalForAll",
            "outputs": [],
            "stateMutability": "nonpayable",
            "type": "function"
        },
        {
            "inputs": [
                {
                    "internalType": "address",
                    "name": "_pool_address",
                    "type": "address"
                }
            ],
            "name": "setPoolAddress",
            "outputs": [
                {
                    "internalType": "address",
                    "name": "",
                    "type": "address"
                }
            ],
            "stateMutability": "nonpayable",
            "type": "function"
        },
        {
            "inputs": [
                {
                    "internalType": "uint256",
                    "name": "_level",
                    "type": "uint256"
                },
                {
                    "internalType": "bool",
                    "name": "_enabled",
                    "type": "bool"
                }
            ],
            "name": "setTrancheEnabled",
            "outputs": [
                {
                    "internalType": "uint256",
                    "name": "",
                    "type": "uint256"
                }
            ],
            "stateMutability": "nonpayable",
            "type": "function"
        },
        {
            "inputs": [
                {
                    "internalType": "uint256",
                    "name": "_level",
                    "type": "uint256"
                },
                {
                    "internalType": "uint256",
                    "name": "_id",
                    "type": "uint256"
                },
                {
                    "internalType": "uint256",
                    "name": "_amount",
                    "type": "uint256"
                }
            ],
            "name": "setTrancheIdAmounts",
            "outputs": [
                {
                    "internalType": "uint256",
                    "name": "",
                    "type": "uint256"
                }
            ],
            "stateMutability": "nonpayable",
            "type": "function"
        },
        {
            "inputs": [
                {
                    "internalType": "uint256",
                    "name": "_level",
                    "type": "uint256"
                },
                {
                    "internalType": "string",
                    "name": "_uri",
                    "type": "string"
                }
            ],
            "name": "setTrancheUri",
            "outputs": [
                {
                    "internalType": "uint256",
                    "name": "",
                    "type": "uint256"
                }
            ],
            "stateMutability": "nonpayable",
            "type": "function"
        },
        {
            "inputs": [
                {
                    "internalType": "uint256",
                    "name": "_level",
                    "type": "uint256"
                },
                {
                    "internalType": "address",
                    "name": "_user",
                    "type": "address"
                }
            ],
            "name": "setUserTrancheLevel",
            "outputs": [
                {
                    "internalType": "uint256",
                    "name": "",
                    "type": "uint256"
                }
            ],
            "stateMutability": "nonpayable",
            "type": "function"
        },
        {
            "inputs": [
                {
                    "internalType": "bytes4",
                    "name": "interfaceId",
                    "type": "bytes4"
                }
            ],
            "name": "supportsInterface",
            "outputs": [
                {
                    "internalType": "bool",
                    "name": "",
                    "type": "bool"
                }
            ],
            "stateMutability": "view",
            "type": "function"
        },
        {
            "inputs": [
                {
                    "internalType": "uint256",
                    "name": "",
                    "type": "uint256"
                }
            ],
            "name": "tokenIdExists",
            "outputs": [
                {
                    "internalType": "bool",
                    "name": "",
                    "type": "bool"
                }
            ],
            "stateMutability": "view",
            "type": "function"
        },
        {
            "inputs": [
                {
                    "internalType": "address",
                    "name": "newOwner",
                    "type": "address"
                }
            ],
            "name": "transferOwnership",
            "outputs": [],
            "stateMutability": "nonpayable",
            "type": "function"
        },
        {
            "inputs": [],
            "name": "unpause",
            "outputs": [],
            "stateMutability": "nonpayable",
            "type": "function"
        },
        {
            "inputs": [
                {
                    "internalType": "uint256",
                    "name": "",
                    "type": "uint256"
                }
            ],
            "name": "uri",
            "outputs": [
                {
                    "internalType": "string",
                    "name": "",
                    "type": "string"
                }
            ],
            "stateMutability": "view",
            "type": "function"
        }
    ],
    "bytecode": "0x608060405234801561001057600080fd5b50614ed0806100206000396000f3fe608060405234801561001057600080fd5b50600436106102c65760003560e01c80638da5cb5b1161017b578063db521db9116100d8578063e9e15b4f1161008c578063f2fde38b11610071578063f2fde38b14610e7c578063f54a91d814610ea2578063f586c6d914610ec5576102c6565b8063e9e15b4f14610d8b578063f242432a14610db1576102c6565b8063e1856ff1116100bd578063e1856ff114610cbb578063e385c83e14610d37578063e985e9c514610d5d576102c6565b8063db521db914610c64578063db9b717014610c8d576102c6565b8063bafbcf671161012f578063beceedec11610114578063beceedec14610b92578063cd06cba114610b9a578063cdcd6dcd14610c47576102c6565b8063bafbcf6714610b49578063bd9caa5814610b66576102c6565b80639df87966116101605780639df87966146109cb578063a22cb465146109e8578063b770eabf14610a16576102c6565b80638da5cb5b146109bb57806391ba317a146109c3576102c6565b8063336146b01161022957806368c21aa6116101dd578063736eede5116101c2578063736eede5146108cc5780637bb7c0d8146108f25780638456cb59146109b3576102c6565b806368c21aa6146108a7578063715018a6146108c4576102c6565b80633f4ba83a1161020e5780633f4ba83a146107205780634e1273f4146107285780635c975abb1461089f576102c6565b8063336146b0146106d7578063353647e9146106f4576102c6565b80630e89341c116102805780631fcf6bd5116102655780631fcf6bd5146104e35780632190dfd0146105085780632eb2c2d614610510576102c6565b80630e89341c146104475780631163ec80146104d9576102c6565b806301ffc9a7116102b157806301ffc9a7146103df5780630a1b5494146104065780630d1306241461042a576102c6565b806230b10d146102cb578062fdd58e146103a1575b600080fd5b61038d600480360360408110156102e157600080fd5b8101906020810181356401000000008111156102fc57600080fd5b82018360208201111561030e57600080fd5b8035906020019184602083028401116401000000008311171561033057600080fd5b91939092909160208101903564010000000081111561034e57600080fd5b82018360208201111561036057600080fd5b8035906020019184600183028401116401000000008311171561038257600080fd5b509092509050610ecd565b604080519115158252519081900360200190f35b6103cd600480360360408110156103b757600080fd5b506001600160a01b038135169060200135611244565b60408051918252519081900360200190f35b61038d600480360360208110156103f557600080fd5b50356001600160e01b0319166112b3565b61040e6112d2565b604080516001600160a01b039092168252519081900360200190f35b61038d6004803603602081101561044057600080fd5b50356112e3565b6104646004803603602081101561045d57600080fd5b50356112f9565b6040805160208082528351818301528351919283929083019185019080838360005b8381101561049e578181015183820152602001610486565b50505050905090810190601f1680156104cb5780820380516001836020036101000a031916815260200191505b509250505060405180910390f35b6104e1611391565b005b6103cd600480360360408110156104f957600080fd5b508035906020013515156113f5565b6104e161175f565b6104e1600480360360a081101561052657600080fd5b6001600160a01b03823581169260208101359091169181019060608101604082013564010000000081111561055a57600080fd5b82018360208201111561056c57600080fd5b8035906020019184602083028401116401000000008311171561058e57600080fd5b91908080602002602001604051908101604052809392919081815260200183836020028082843760009201919091525092959493602081019350359150506401000000008111156105de57600080fd5b8201836020820111156105f057600080fd5b8035906020019184602083028401116401000000008311171561061257600080fd5b919080806020026020016040519081016040528093929190818152602001838360200280828437600092019190915250929594936020810193503591505064010000000081111561066257600080fd5b82018360208201111561067457600080fd5b8035906020019184600183028401116401000000008311171561069657600080fd5b91908080601f016020809104026020016040519081016040528093929190818152602001838380828437600092019190915250929550611806945050505050565b61038d600480360360208110156106ed57600080fd5b5035611b09565b6103cd6004803603604081101561070a57600080fd5b50803590602001356001600160a01b0316611cdc565b6104e1611e49565b61084f6004803603604081101561073e57600080fd5b81019060208101813564010000000081111561075957600080fd5b82018360208201111561076b57600080fd5b8035906020019184602083028401116401000000008311171561078d57600080fd5b91908080602002602001604051908101604052809392919081815260200183836020028082843760009201919091525092959493602081019350359150506401000000008111156107dd57600080fd5b8201836020820111156107ef57600080fd5b8035906020019184602083028401116401000000008311171561081157600080fd5b919080806020026020016040519081016040528093929190818152602001838360200280828437600092019190915250929550611f0c945050505050565b60408051602080825283518183015283519192839290830191858101910280838360005b8381101561088b578181015183820152602001610873565b505050509050019250505060405180910390f35b61038d611ff8565b6103cd600480360360208110156108bd57600080fd5b5035612000565b6104e1612013565b61040e600480360360208110156108e257600080fd5b50356001600160a01b03166120cc565b6104e16004803603606081101561090857600080fd5b6001600160a01b03823516919081019060408101602082013564010000000081111561093357600080fd5b82018360208201111561094557600080fd5b8035906020019184600183028401116401000000008311171561096757600080fd5b91908080601f016020809104026020016040519081016040528093929190818152602001838380828437600092019190915250929550505090356001600160a01b0316915061222b9050565b6104e1612324565b61040e6123e8565b6103cd6123f7565b6103cd600480360360208110156109e157600080fd5b50356123fe565b6104e1600480360360408110156109fe57600080fd5b506001600160a01b0381351690602001351515612600565b6103cd60048036036080811015610a2c57600080fd5b81359190810190604081016020820135640100000000811115610a4e57600080fd5b820183602082011115610a6057600080fd5b80359060200191846020830284011164010000000083111715610a8257600080fd5b9190808060200260200160405190810160405280939291908181526020018383602002808284376000920191909152509295949360208101935035915050640100000000811115610ad257600080fd5b820183602082011115610ae457600080fd5b80359060200191846001830284011164010000000083111715610b0657600080fd5b91908080601f01602080910402602001604051908101604052809392919081815260200183838082843760009201919091525092955050505035151590506126ef565b61038d60048036036020811015610b5f57600080fd5b5035612a19565b6103cd60048036036040811015610b7c57600080fd5b506001600160a01b038135169060200135612a76565b6103cd612b60565b6103cd60048036036040811015610bb057600080fd5b81359190810190604081016020820135640100000000811115610bd257600080fd5b820183602082011115610be457600080fd5b80359060200191846001830284011164010000000083111715610c0657600080fd5b91908080601f016020809104026020016040519081016040528093929190818152602001838380828437600092019190915250929550612b9b945050505050565b61046460048036036020811015610c5d57600080fd5b5035612cd2565b6103cd60048036036060811015610c7a57600080fd5b5080359060208101359060400135612ea5565b6104e160048036036040811015610ca357600080fd5b506001600160a01b0381351690602001351515613129565b6103cd60048036036060811015610cd157600080fd5b813591602081013591810190606081016040820135640100000000811115610cf857600080fd5b820183602082011115610d0a57600080fd5b80359060200191846001830284011164010000000083111715610d2c57600080fd5b509092509050613199565b6103cd60048036036020811015610d4d57600080fd5b50356001600160a01b031661339b565b61038d60048036036040811015610d7357600080fd5b506001600160a01b038135811691602001351661341b565b61040e60048036036020811015610da157600080fd5b50356001600160a01b0316613449565b6104e1600480360360a0811015610dc757600080fd5b6001600160a01b03823581169260208101359091169160408201359160608101359181019060a081016080820135640100000000811115610e0757600080fd5b820183602082011115610e1957600080fd5b80359060200191846001830284011164010000000083111715610e3b57600080fd5b91908080601f0160208091040260200160405190810160405280939291908181526020018383808284376000920191909152509295506135a9945050505050565b6104e160048036036020811015610e9257600080fd5b50356001600160a01b0316613774565b6103cd60048036036040811015610eb857600080fd5b5080359060200135613884565b61040e61398f565b6000848460005b81811015610f39576000838383818110610eea57fe5b9050602002013511610f31576040805162461bcd60e51b81526020600482018190526024820152600080516020614c32833981519152604482015290519081900360640190fd5b600101610ed4565b50610f42611ff8565b15610f94576040805162461bcd60e51b815260206004820152601060248201527f5061757361626c653a2070617573656400000000000000000000000000000000604482015290519081900360640190fd5b33600090815260976020908152604080832054808452609a835292819020600190810180548351818602810186019094528084529194936060939290830182828015610fff57602002820191906000526020600020905b815481526020019060010190808311610feb575b505050505090506060815167ffffffffffffffff8111801561102057600080fd5b5060405190808252806020026020018201604052801561104a578160200160208202803683370190505b5090506060825167ffffffffffffffff8111801561106757600080fd5b50604051908082528060200260200182016040528015611091578160200160208202803683370190505b5090506000805b84518110156111425760008582815181106110af57fe5b6020026020010151905060005b8e811015611138578f8f828181106110d057fe5b9050602002013582141561113057818685815181106110eb57fe5b60209081029190910181019190915260008981526099825260408082208583529092522054855186908690811061111e57fe5b60209081029190910101526001909301925b6001016110bc565b5050600101611098565b5061118d61114e6123e8565b3385858f8f8080601f01602080910402602001604051908101604052809392919081815260200183838082843760009201919091525061180692505050565b7f930fa7c79695ef96452a16eeea7f7b067972c7a52fefd0424a0ae515258877b7838c8c604051808060200180602001838103835286818151815260200191508051906020019060200280838360005b838110156111f55781810151838201526020016111dd565b505050509050018381038252858582818152602001925080828437600083820152604051601f909101601f191690920182900397509095505050505050a150939b9a5050505050505050505050565b60006001600160a01b03831661128b5760405162461bcd60e51b815260040180806020018281038252602b815260200180614c52602b913960400191505060405180910390fd5b50600090815260cd602090815260408083206001600160a01b03949094168352929052205490565b6001600160e01b0319166000908152609b602052604090205460ff1690565b610163546001600160a01b03165b90565b6101646020526000908152604090205460ff1681565b60cf8054604080516020601f60026000196101006001881615020190951694909404938401819004810282018101909252828152606093909290918301828280156113855780601f1061135a57610100808354040283529160200191611385565b820191906000526020600020905b81548152906001019060200180831161136857829003601f168201915b50505050509050919050565b611399613a1f565b6001600160a01b03166113aa6123e8565b6001600160a01b0316146113f3576040805162461bcd60e51b81526020600482018190526024820152600080516020614da7833981519152604482015290519081900360640190fd5b565b60006113ff613a1f565b6001600160a01b03166114106123e8565b6001600160a01b031614611459576040805162461bcd60e51b81526020600482018190526024820152600080516020614da7833981519152604482015290519081900360640190fd5b826000811161149d576040805162461bcd60e51b81526020600482018190526024820152600080516020614c32833981519152604482015290519081900360640190fd5b600084815260986020526040902054849060ff1615156001146114fd576040805162461bcd60e51b81526020600482015260136024820152725472616e636865206d7573742065786973742160681b604482015290519081900360640190fd5b6115056149d5565b6000868152609a60209081526040918290208251608081018452815481526001820180548551818602810186019096528086529194929385810193929083018282801561157157602002820191906000526020600020905b81548152602001906001019080831161155d575b5050509183525050600282810180546040805160206001841615610100026000190190931694909404601f810183900483028501830190915280845293810193908301828280156116035780601f106115d857610100808354040283529160200191611603565b820191906000526020600020905b8154815290600101906020018083116115e657829003601f168201915b50505091835250506003919091015460ff16151560209182015286151560608301526000888152609a8252604090208251815582820151805193945084939192611655926001850192909101906149ff565b5060408201518051611671916002840191602090910190614a4a565b5060608201518160030160006101000a81548160ff0219169083151502179055509050507f4080729c439b616422adf640ea84cba208b300d07ccd0871a4e7fe04825d9f76338783604001518860405180856001600160a01b03168152602001848152602001806020018315158152602001828103825284818151815260200191508051906020019080838360005b83811015611718578181015183820152602001611700565b50505050905090810190601f1680156117455780820380516001836020036101000a031916815260200191505b509550505050505060405180910390a15093949350505050565b611767613a1f565b6001600160a01b03166117786123e8565b6001600160a01b0316146117c1576040805162461bcd60e51b81526020600482018190526024820152600080516020614da7833981519152604482015290519081900360640190fd5b6117c9612324565b6117d1611391565b6040805133815290517f04212f0a94a81b9b2b305096cf91da61f1b921020871da07674c5b5ef5e9e9af9181900360200190a1565b81518351146118465760405162461bcd60e51b8152600401808060200182810382526028815260200180614e526028913960400191505060405180910390fd5b6001600160a01b03841661188b5760405162461bcd60e51b8152600401808060200182810382526025815260200180614cf86025913960400191505060405180910390fd5b611893613a1f565b6001600160a01b0316856001600160a01b031614806118be57506118be856118b9613a1f565b61341b565b6118f95760405162461bcd60e51b8152600401808060200182810382526032815260200180614d1d6032913960400191505060405180910390fd5b6000611903613a1f565b9050611913818787878787613a23565b60005b8451811015611a1957600085828151811061192d57fe5b60200260200101519050600085838151811061194557fe5b602002602001015190506119b2816040518060600160405280602a8152602001614d7d602a913960cd600086815260200190815260200160002060008d6001600160a01b03166001600160a01b0316815260200190815260200160002054613c289092919063ffffffff16565b600083815260cd602090815260408083206001600160a01b038e811685529252808320939093558a16815220546119e99082613cbf565b600092835260cd602090815260408085206001600160a01b038c1686529091529092209190915550600101611916565b50846001600160a01b0316866001600160a01b0316826001600160a01b03167f4a39dc06d4c0dbc64b70af90fd698a233a518aa5d07e595d983b8c0526c8f7fb8787604051808060200180602001838103835285818151815260200191508051906020019060200280838360005b83811015611a9f578181015183820152602001611a87565b50505050905001838103825284818151815260200191508051906020019060200280838360005b83811015611ade578181015183820152602001611ac6565b5050505090500194505050505060405180910390a4611b01818787878787613d20565b505050505050565b60008160008111611b4f576040805162461bcd60e51b81526020600482018190526024820152600080516020614c32833981519152604482015290519081900360640190fd5b600083815260986020526040902054839060ff161515600114611baf576040805162461bcd60e51b81526020600482015260136024820152725472616e636865206d7573742065786973742160681b604482015290519081900360640190fd5b611bb76149d5565b6000858152609a602090815260409182902082516080810184528154815260018201805485518186028101860190965280865291949293858101939290830182828015611c2357602002820191906000526020600020905b815481526020019060010190808311611c0f575b5050509183525050600282810180546040805160206001841615610100026000190190931694909404601f81018390048302850183019091528084529381019390830182828015611cb55780601f10611c8a57610100808354040283529160200191611cb5565b820191906000526020600020905b815481529060010190602001808311611c9857829003601f168201915b50505091835250506003919091015460ff1615156020909101526060015195945050505050565b6000611ce6613a1f565b6001600160a01b0316611cf76123e8565b6001600160a01b031614611d40576040805162461bcd60e51b81526020600482018190526024820152600080516020614da7833981519152604482015290519081900360640190fd5b8260008111611d84576040805162461bcd60e51b81526020600482018190526024820152600080516020614c32833981519152604482015290519081900360640190fd5b600084815260986020526040902054849060ff161515600114611de4576040805162461bcd60e51b81526020600482015260136024820152725472616e636865206d7573742065786973742160681b604482015290519081900360640190fd5b6001600160a01b038416600081815260976020908152604091829020889055815133815290810188905280820192909252517faf11ea68697ae704bc07139e2a2405b17fe37be2dd3550655c5ba6ed293e53179181900360600190a150929392505050565b611e51611ff8565b611ea2576040805162461bcd60e51b815260206004820152601460248201527f5061757361626c653a206e6f7420706175736564000000000000000000000000604482015290519081900360640190fd5b611eaa613a1f565b6001600160a01b0316611ebb6123e8565b6001600160a01b031614611f04576040805162461bcd60e51b81526020600482018190526024820152600080516020614da7833981519152604482015290519081900360640190fd5b6113f3613fb8565b60608151835114611f4e5760405162461bcd60e51b8152600401808060200182810382526029815260200180614e296029913960400191505060405180910390fd5b6060835167ffffffffffffffff81118015611f6857600080fd5b50604051908082528060200260200182016040528015611f92578160200160208202803683370190505b50905060005b8451811015611ff057611fd1858281518110611fb057fe5b6020026020010151858381518110611fc457fe5b6020026020010151611244565b828281518110611fdd57fe5b6020908102919091010152600101611f98565b509392505050565b60ff80541690565b6101656020526000908152604090205481565b61201b613a1f565b6001600160a01b031661202c6123e8565b6001600160a01b031614612075576040805162461bcd60e51b81526020600482018190526024820152600080516020614da7833981519152604482015290519081900360640190fd5b6033546040516000916001600160a01b0316907f8be0079c531659141344cd1fd0a4f28419497f9722a3daafe3b4186f6b6457e0908390a36033805473ffffffffffffffffffffffffffffffffffffffff19169055565b60006120d6613a1f565b6001600160a01b03166120e76123e8565b6001600160a01b031614612130576040805162461bcd60e51b81526020600482018190526024820152600080516020614da7833981519152604482015290519081900360640190fd5b60026065541415612188576040805162461bcd60e51b815260206004820152601f60248201527f5265656e7472616e637947756172643a207265656e7472616e742063616c6c00604482015290519081900360640190fd5b60026065556001600160a01b0382166121e8576040805162461bcd60e51b815260206004820152601760248201527f4d75737420626520612076616c69642061646472657373000000000000000000604482015290519081900360640190fd5b5061016380546001600160a01b03831673ffffffffffffffffffffffffffffffffffffffff19918216811790925561016780549091169091179055600160655590565b600054610100900460ff16806122445750612244614061565b80612252575060005460ff16155b61228d5760405162461bcd60e51b815260040180806020018281038252602e815260200180614d4f602e913960400191505060405180910390fd5b600054610100900460ff161580156122b8576000805460ff1961ff0019909116610100171660011790555b61016380546001600160a01b03841673ffffffffffffffffffffffffffffffffffffffff199182168117909255610167805490911690911790556122fb83614072565b61230361412d565b61230c84613774565b801561231e576000805461ff00191690555b50505050565b61232c611ff8565b1561237e576040805162461bcd60e51b815260206004820152601060248201527f5061757361626c653a2070617573656400000000000000000000000000000000604482015290519081900360640190fd5b612386613a1f565b6001600160a01b03166123976123e8565b6001600160a01b0316146123e0576040805162461bcd60e51b81526020600482018190526024820152600080516020614da7833981519152604482015290519081900360640190fd5b6113f36141df565b6033546001600160a01b031690565b6101665481565b6000612408613a1f565b6001600160a01b03166124196123e8565b6001600160a01b031614612462576040805162461bcd60e51b81526020600482018190526024820152600080516020614da7833981519152604482015290519081900360640190fd5b81600081116124a6576040805162461bcd60e51b81526020600482018190526024820152600080516020614c32833981519152604482015290519081900360640190fd5b600083815260986020526040902054839060ff161515600114612506576040805162461bcd60e51b81526020600482015260136024820152725472616e636865206d7573742065786973742160681b604482015290519081900360640190fd5b60005b6000858152609a602052604090206001015481101561256a576000858152609a6020526040812060010180548390811061253f57fe5b6000918252602080832090910154888352609982526040808420918452915281205550600101612509565b506000848152609a602052604081208181559061258a6001830182614ab7565b612598600283016000614ad5565b50600301805460ff199081169091556000858152609860209081526040918290208054909316909255805133815291820186905280517f9f23311ec182e1830679e732d26bb9be452b3a6436ac7bceed68990b8441f7299281900390910190a1509192915050565b816001600160a01b0316612612613a1f565b6001600160a01b031614156126585760405162461bcd60e51b8152600401808060200182810382526029815260200180614e006029913960400191505060405180910390fd5b8060ce6000612665613a1f565b6001600160a01b03908116825260208083019390935260409182016000908120918716808252919093529120805460ff1916921515929092179091556126a9613a1f565b6001600160a01b03167f17307eab39ab6107e8899845ad3d59bd9653f200f220920489ca2b5937696c318360405180821515815260200191505060405180910390a35050565b60006126f9613a1f565b6001600160a01b031661270a6123e8565b6001600160a01b031614612753576040805162461bcd60e51b81526020600482018190526024820152600080516020614da7833981519152604482015290519081900360640190fd5b600260655414156127ab576040805162461bcd60e51b815260206004820152601f60248201527f5265656e7472616e637947756172643a207265656e7472616e742063616c6c00604482015290519081900360640190fd5b600260655560008581526098602052604090205460ff1615612814576040805162461bcd60e51b815260206004820152601760248201527f5472616e63686520616c72656164792065786973747321000000000000000000604482015290519081900360640190fd5b61281c6149d5565b5060408051608081018252868152602080820187815282840187905285151560608401526000898152609a835293909320825181559251805192938493909261286c9260018501929101906149ff565b5060408201518051612888916002840191602090910190614a4a565b50606091909101516003909101805491151560ff19928316179055600087815260986020526040812080549092166001179091555b8551811015612907576000878152609960205260408120875182908990859081106128e457fe5b6020908102919091018101518252810191909152604001600020556001016128bd565b507f1866cc6447f959f6e492777ec6ca8fdb00a9a611c26d6c39d9eb020e01fdd9a5338787878760405180866001600160a01b0316815260200185815260200180602001806020018415158152602001838103835286818151815260200191508051906020019060200280838360005b8381101561298f578181015183820152602001612977565b50505050905001838103825285818151815260200191508051906020019080838360005b838110156129cb5781810151838201526020016129b3565b50505050905090810190601f1680156129f85780820380516001836020036101000a031916815260200191505b5097505050505050505060405180910390a150506001606555509192915050565b60008160008111612a5f576040805162461bcd60e51b81526020600482018190526024820152600080516020614c32833981519152604482015290519081900360640190fd5b505060009081526098602052604090205460ff1690565b60008160008111612abc576040805162461bcd60e51b81526020600482018190526024820152600080516020614c32833981519152604482015290519081900360640190fd5b61016754604080517fbd9caa580000000000000000000000000000000000000000000000000000000081526001600160a01b038781166004830152602482018790529151919092169163bd9caa589160448083019260209291908290030181600087803b158015612b2c57600080fd5b505af1158015612b40573d6000803e3d6000fd5b505050506040513d6020811015612b5657600080fd5b5051949350505050565b600080805b61016654811015612b955760008181526101656020526040902054612b8b908390613cbf565b9150600101612b65565b50905090565b6000612ba5613a1f565b6001600160a01b0316612bb66123e8565b6001600160a01b031614612bff576040805162461bcd60e51b81526020600482018190526024820152600080516020614da7833981519152604482015290519081900360640190fd5b8260008111612c43576040805162461bcd60e51b81526020600482018190526024820152600080516020614c32833981519152604482015290519081900360640190fd5b600084815260986020526040902054849060ff161515600114612ca3576040805162461bcd60e51b81526020600482015260136024820152725472616e636865206d7573742065786973742160681b604482015290519081900360640190fd5b6000858152609a602090815260409091208551612cc892600290920191870190614a4a565b5093949350505050565b60608160008111612d18576040805162461bcd60e51b81526020600482018190526024820152600080516020614c32833981519152604482015290519081900360640190fd5b600083815260986020526040902054839060ff161515600114612d78576040805162461bcd60e51b81526020600482015260136024820152725472616e636865206d7573742065786973742160681b604482015290519081900360640190fd5b612d806149d5565b6000858152609a602090815260409182902082516080810184528154815260018201805485518186028101860190965280865291949293858101939290830182828015612dec57602002820191906000526020600020905b815481526020019060010190808311612dd8575b5050509183525050600282810180546040805160206001841615610100026000190190931694909404601f81018390048302850183019091528084529381019390830182828015612e7e5780601f10612e5357610100808354040283529160200191612e7e565b820191906000526020600020905b815481529060010190602001808311612e6157829003601f168201915b50505091835250506003919091015460ff1615156020909101526040015195945050505050565b6000612eaf613a1f565b6001600160a01b0316612ec06123e8565b6001600160a01b031614612f09576040805162461bcd60e51b81526020600482018190526024820152600080516020614da7833981519152604482015290519081900360640190fd5b8360008111612f4d576040805162461bcd60e51b81526020600482018190526024820152600080516020614c32833981519152604482015290519081900360640190fd5b8360008111612f91576040805162461bcd60e51b81526020600482018190526024820152600080516020614c32833981519152604482015290519081900360640190fd5b8360008111612fd5576040805162461bcd60e51b81526020600482018190526024820152600080516020614c32833981519152604482015290519081900360640190fd5b600087815260986020526040902054879060ff161515600114613035576040805162461bcd60e51b81526020600482015260136024820152725472616e636865206d7573742065786973742160681b604482015290519081900360640190fd5b6000805b60008a8152609a60205260409020600101548110156130905760008a8152609a6020526040902060010180548a91908390811061307257fe5b9060005260206000200154141561308857600191505b600101613039565b50806130bb576000898152609a60209081526040822060019081018054918201815583529120018890555b60008981526099602090815260408083208b845282529182902089905581513381529081018b90528082018a90526060810189905290517fae4e25da4de9e3baf9c699b86d23a139beb07fd89228c16f6be766d6464de70c9181900360800190a15096979650505050505050565b613131613a1f565b6001600160a01b03166131426123e8565b6001600160a01b03161461318b576040805162461bcd60e51b81526020600482018190526024820152600080516020614da7833981519152604482015290519081900360640190fd5b6131958282612600565b5050565b60006131a3613a1f565b6001600160a01b03166131b46123e8565b6001600160a01b0316146131fd576040805162461bcd60e51b81526020600482018190526024820152600080516020614da7833981519152604482015290519081900360640190fd5b60026065541415613255576040805162461bcd60e51b815260206004820152601f60248201527f5265656e7472616e637947756172643a207265656e7472616e742063616c6c00604482015290519081900360640190fd5b6002606555848061329b576040805162461bcd60e51b81526020600482018190526024820152600080516020614c32833981519152604482015290519081900360640190fd5b60006132a887600161426f565b90508015613319576000818152610164602052604090205460ff161515600114613319576040805162461bcd60e51b815260206004820152601d60248201527f50726576696f757320746f6b656e206964206d7573742065786973742e000000604482015290519081900360640190fd5b61335b33888888888080601f0160208091040260200160405190810160405280939291908181526020018383808284376000920191909152506142cc92505050565b50610166869055600086815261016460209081526040808320805460ff191660011790556101659091529020859055859150506001606555949350505050565b60006133a5613a1f565b6001600160a01b03166133b66123e8565b6001600160a01b0316146133ff576040805162461bcd60e51b81526020600482018190526024820152600080516020614da7833981519152604482015290519081900360640190fd5b506001600160a01b031660009081526097602052604090205490565b6001600160a01b03918216600090815260ce6020908152604080832093909416825291909152205460ff1690565b6000600260655414156134a3576040805162461bcd60e51b815260206004820152601f60248201527f5265656e7472616e637947756172643a207265656e7472616e742063616c6c00604482015290519081900360640190fd5b60026065556001600160a01b038216613503576040805162461bcd60e51b815260206004820152601760248201527f4d75737420626520612076616c69642061646472657373000000000000000000604482015290519081900360640190fd5b61016754604080517f5894ffcf0000000000000000000000000000000000000000000000000000000081523360048201526001600160a01b03858116602483015291519190921691635894ffcf9160448083019260209291908290030181600087803b15801561357257600080fd5b505af1158015613586573d6000803e3d6000fd5b505050506040513d602081101561359c57600080fd5b5051600160655592915050565b6001600160a01b0384166135ee5760405162461bcd60e51b8152600401808060200182810382526025815260200180614cf86025913960400191505060405180910390fd5b6135f6613a1f565b6001600160a01b0316856001600160a01b0316148061361c575061361c856118b9613a1f565b6136575760405162461bcd60e51b8152600401808060200182810382526029815260200180614ccf6029913960400191505060405180910390fd5b6000613661613a1f565b9050613681818787613672886143d4565b61367b886143d4565b87613a23565b6136c8836040518060600160405280602a8152602001614d7d602a9139600087815260cd602090815260408083206001600160a01b038d1684529091529020549190613c28565b600085815260cd602090815260408083206001600160a01b038b811685529252808320939093558716815220546136ff9084613cbf565b600085815260cd602090815260408083206001600160a01b03808b168086529184529382902094909455805188815291820187905280518a8416938616927fc3d58168c5ae7397731d063d5bbf3d657854427343f4c083240f7aacaa2d0f6292908290030190a4611b01818787878787614418565b61377c613a1f565b6001600160a01b031661378d6123e8565b6001600160a01b0316146137d6576040805162461bcd60e51b81526020600482018190526024820152600080516020614da7833981519152604482015290519081900360640190fd5b6001600160a01b03811661381b5760405162461bcd60e51b8152600401808060200182810382526026815260200180614c7d6026913960400191505060405180910390fd5b6033546040516001600160a01b038084169216907f8be0079c531659141344cd1fd0a4f28419497f9722a3daafe3b4186f6b6457e090600090a36033805473ffffffffffffffffffffffffffffffffffffffff19166001600160a01b0392909216919091179055565b600082600081116138ca576040805162461bcd60e51b81526020600482018190526024820152600080516020614c32833981519152604482015290519081900360640190fd5b826000811161390e576040805162461bcd60e51b81526020600482018190526024820152600080516020614c32833981519152604482015290519081900360640190fd5b600085815260986020526040902054859060ff16151560011461396e576040805162461bcd60e51b81526020600482015260136024820152725472616e636865206d7573742065786973742160681b604482015290519081900360640190fd5b50505060009283525060996020908152604080842092845291905290205490565b61016754604080517ff586c6d900000000000000000000000000000000000000000000000000000000815290516000926001600160a01b03169163f586c6d9916004808301926020929190829003018186803b1580156139ee57600080fd5b505afa158015613a02573d6000803e3d6000fd5b505050506040513d6020811015613a1857600080fd5b5051905090565b3390565b6001600160a01b038516600090815260976020526040902054613a446149d5565b6000828152609a602090815260409182902082516080810184528154815260018201805485518186028101860190965280865291949293858101939290830182828015613ab057602002820191906000526020600020905b815481526020019060010190808311613a9c575b5050509183525050600282810180546040805160206001841615610100026000190190931694909404601f81018390048302850183019091528084529381019390830182828015613b425780601f10613b1757610100808354040283529160200191613b42565b820191906000526020600020905b815481529060010190602001808311613b2557829003601f168201915b50505091835250506003919091015460ff16151560209182015281015190915060005b8151811015613c0e57600084815260996020526040812083518290859085908110613b8c57fe5b602002602001015181526020019081526020016000205490506000613bb18b83612a76565b905080888481518110613bc057fe5b602002602001015110613c045760405162461bcd60e51b8152600401808060200182810382526039815260200180614dc76039913960400191505060405180910390fd5b5050600101613b65565b50613c1d8989898989896145a2565b505050505050505050565b60008184841115613cb75760405162461bcd60e51b81526004018080602001828103825283818151815260200191508051906020019080838360005b83811015613c7c578181015183820152602001613c64565b50505050905090810190601f168015613ca95780820380516001836020036101000a031916815260200191505b509250505060405180910390fd5b505050900390565b600082820183811015613d19576040805162461bcd60e51b815260206004820152601b60248201527f536166654d6174683a206164646974696f6e206f766572666c6f770000000000604482015290519081900360640190fd5b9392505050565b613d32846001600160a01b03166145f4565b15611b0157836001600160a01b031663bc197c8187878686866040518663ffffffff1660e01b815260040180866001600160a01b03168152602001856001600160a01b03168152602001806020018060200180602001848103845287818151815260200191508051906020019060200280838360005b83811015613dc0578181015183820152602001613da8565b50505050905001848103835286818151815260200191508051906020019060200280838360005b83811015613dff578181015183820152602001613de7565b50505050905001848103825285818151815260200191508051906020019080838360005b83811015613e3b578181015183820152602001613e23565b50505050905090810190601f168015613e685780820380516001836020036101000a031916815260200191505b5098505050505050505050602060405180830381600087803b158015613e8d57600080fd5b505af1925050508015613eb257506040513d6020811015613ead57600080fd5b505160015b613f4757613ebe614b30565b80613ec95750613f10565b60405162461bcd60e51b8152602060048201818152835160248401528351849391928392604401919085019080838360008315613c7c578181015183820152602001613c64565b60405162461bcd60e51b8152600401808060200182810382526034815260200180614bd66034913960400191505060405180910390fd5b6001600160e01b031981167fbc197c810000000000000000000000000000000000000000000000000000000014613faf5760405162461bcd60e51b8152600401808060200182810382526028815260200180614c0a6028913960400191505060405180910390fd5b50505050505050565b613fc0611ff8565b614011576040805162461bcd60e51b815260206004820152601460248201527f5061757361626c653a206e6f7420706175736564000000000000000000000000604482015290519081900360640190fd5b60ff805460ff191690557f5db9ee0a495bf2e6ff9c91a7834c1ba4fdd244a5e8aa4e537bd38aeae4b073aa614044613a1f565b604080516001600160a01b039092168252519081900360200190a1565b600061406c306145f4565b15905090565b600054610100900460ff168061408b575061408b614061565b80614099575060005460ff16155b6140d45760405162461bcd60e51b815260040180806020018281038252602e815260200180614d4f602e913960400191505060405180910390fd5b600054610100900460ff161580156140ff576000805460ff1961ff0019909116610100171660011790555b6141076145fa565b61410f61469a565b61411882614750565b8015613195576000805461ff00191690555050565b600054610100900460ff16806141465750614146614061565b80614154575060005460ff16155b61418f5760405162461bcd60e51b815260040180806020018281038252602e815260200180614d4f602e913960400191505060405180910390fd5b600054610100900460ff161580156141ba576000805460ff1961ff0019909116610100171660011790555b6141c26145fa565b6141ca614838565b80156141dc576000805461ff00191690555b50565b6141e7611ff8565b15614239576040805162461bcd60e51b815260206004820152601060248201527f5061757361626c653a2070617573656400000000000000000000000000000000604482015290519081900360640190fd5b60ff805460ff191660011790557f62e78cea01bee320cd4e420270b5ea74000d11b0c9f74754ebdbfc544b05a258614044613a1f565b6000828211156142c6576040805162461bcd60e51b815260206004820152601e60248201527f536166654d6174683a207375627472616374696f6e206f766572666c6f770000604482015290519081900360640190fd5b50900390565b6001600160a01b0384166143115760405162461bcd60e51b8152600401808060200182810382526021815260200180614e7a6021913960400191505060405180910390fd5b600061431b613a1f565b905061432d81600087613672886143d4565b600084815260cd602090815260408083206001600160a01b038916845290915290205461435a9084613cbf565b600085815260cd602090815260408083206001600160a01b03808b16808652918452828520959095558151898152928301889052815190948616927fc3d58168c5ae7397731d063d5bbf3d657854427343f4c083240f7aacaa2d0f6292908290030190a46143cd81600087878787614418565b5050505050565b60408051600180825281830190925260609182919060208083019080368337019050509050828160008151811061440757fe5b602090810291909101015292915050565b61442a846001600160a01b03166145f4565b15611b0157836001600160a01b031663f23a6e6187878686866040518663ffffffff1660e01b815260040180866001600160a01b03168152602001856001600160a01b0316815260200184815260200183815260200180602001828103825283818151815260200191508051906020019080838360005b838110156144b95781810151838201526020016144a1565b50505050905090810190601f1680156144e65780820380516001836020036101000a031916815260200191505b509650505050505050602060405180830381600087803b15801561450957600080fd5b505af192505050801561452e57506040513d602081101561452957600080fd5b505160015b61453a57613ebe614b30565b6001600160e01b031981167ff23a6e610000000000000000000000000000000000000000000000000000000014613faf5760405162461bcd60e51b8152600401808060200182810382526028815260200180614c0a6028913960400191505060405180910390fd5b6145b0868686868686611b01565b6145b8611ff8565b15611b015760405162461bcd60e51b815260040180806020018281038252602c815260200180614ca3602c913960400191505060405180910390fd5b3b151590565b600054610100900460ff16806146135750614613614061565b80614621575060005460ff16155b61465c5760405162461bcd60e51b815260040180806020018281038252602e815260200180614d4f602e913960400191505060405180910390fd5b600054610100900460ff161580156141ca576000805460ff1961ff00199091166101001716600117905580156141dc576000805461ff001916905550565b600054610100900460ff16806146b357506146b3614061565b806146c1575060005460ff16155b6146fc5760405162461bcd60e51b815260040180806020018281038252602e815260200180614d4f602e913960400191505060405180910390fd5b600054610100900460ff16158015614727576000805460ff1961ff0019909116610100171660011790555b6141ca7f01ffc9a70000000000000000000000000000000000000000000000000000000061493e565b600054610100900460ff16806147695750614769614061565b80614777575060005460ff16155b6147b25760405162461bcd60e51b815260040180806020018281038252602e815260200180614d4f602e913960400191505060405180910390fd5b600054610100900460ff161580156147dd576000805460ff1961ff0019909116610100171660011790555b6147e6826149c2565b61480f7fd9b67a260000000000000000000000000000000000000000000000000000000061493e565b6141187f0e89341c0000000000000000000000000000000000000000000000000000000061493e565b600054610100900460ff16806148515750614851614061565b8061485f575060005460ff16155b61489a5760405162461bcd60e51b815260040180806020018281038252602e815260200180614d4f602e913960400191505060405180910390fd5b600054610100900460ff161580156148c5576000805460ff1961ff0019909116610100171660011790555b60006148cf613a1f565b6033805473ffffffffffffffffffffffffffffffffffffffff19166001600160a01b038316908117909155604051919250906000907f8be0079c531659141344cd1fd0a4f28419497f9722a3daafe3b4186f6b6457e0908290a35080156141dc576000805461ff001916905550565b6001600160e01b0319808216141561499d576040805162461bcd60e51b815260206004820152601c60248201527f4552433136353a20696e76616c696420696e7465726661636520696400000000604482015290519081900360640190fd5b6001600160e01b0319166000908152609b60205260409020805460ff19166001179055565b80516131959060cf906020840190614a4a565b60405180608001604052806000815260200160608152602001606081526020016000151581525090565b828054828255906000526020600020908101928215614a3a579160200282015b82811115614a3a578251825591602001919060010190614a1f565b50614a46929150614b15565b5090565b828054600181600116156101000203166002900490600052602060002090601f016020900481019282601f10614a8b57805160ff1916838001178555614a3a565b82800160010185558215614a3a5791820182811115614a3a578251825591602001919060010190614a1f565b50805460008255906000526020600020908101906141dc9190614b15565b50805460018160011615610100020316600290046000825580601f10614afb57506141dc565b601f0160209004906000526020600020908101906141dc91905b5b80821115614a465760008155600101614b16565b60e01c90565b600060443d1015614b40576112e0565b600481823e6308c379a0614b548251614b2a565b14614b5e576112e0565b6040513d600319016004823e80513d67ffffffffffffffff8160248401118184111715614b8e57505050506112e0565b82840192508251915080821115614ba857505050506112e0565b503d83016020828401011115614bc0575050506112e0565b601f01601f191681016020016040529150509056fe455243313135353a207472616e7366657220746f206e6f6e2045524331313535526563656976657220696d706c656d656e746572455243313135353a204552433131353552656365697665722072656a656374656420746f6b656e73496e707574206d7573742062652067726561746572207468616e207a65726f2e455243313135353a2062616c616e636520717565727920666f7220746865207a65726f20616464726573734f776e61626c653a206e6577206f776e657220697320746865207a65726f2061646472657373455243313135355061757361626c653a20746f6b656e207472616e73666572207768696c6520706175736564455243313135353a2063616c6c6572206973206e6f74206f776e6572206e6f7220617070726f766564455243313135353a207472616e7366657220746f20746865207a65726f2061646472657373455243313135353a207472616e736665722063616c6c6572206973206e6f74206f776e6572206e6f7220617070726f766564496e697469616c697a61626c653a20636f6e747261637420697320616c726561647920696e697469616c697a6564455243313135353a20696e73756666696369656e742062616c616e636520666f72207472616e736665724f776e61626c653a2063616c6c6572206973206e6f7420746865206f776e6572496420616d6f756e7473206d757374206265206c657373207468616e2074686520616c6c6f776564207472616e63686520616d6f756e74732e455243313135353a2073657474696e6720617070726f76616c2073746174757320666f722073656c66455243313135353a206163636f756e747320616e6420696473206c656e677468206d69736d61746368455243313135353a2069647320616e6420616d6f756e7473206c656e677468206d69736d61746368455243313135353a206d696e7420746f20746865207a65726f2061646472657373a26469706673582212204f776a554f7ff96e27b5d2743f4aec6eebc2afa494c2f589ab3001fdee9731ce64736f6c63430007030033",
    "linkReferences": {},
    "deployedLinkReferences": {}
}