{
  "_format": "hh-sol-artifact-1",
  "contractName": "EthPoolAdapter",
  "sourceName": "contracts/adapters/EthPoolAdapter.sol",
  "abi": [
    {
      "anonymous": false,
      "inputs": [
        {
          "indexed": true,
          "internalType": "address",
          "name": "previousOwner",
          "type": "address"
        },
        {
          "indexed": true,
          "internalType": "address",
          "name": "newOwner",
          "type": "address"
        }
      ],
      "name": "OwnershipTransferred",
      "type": "event"
    },
    {
      "inputs": [
        {
          "internalType": "address",
          "name": "_new_admin",
          "type": "address"
        }
      ],
      "name": "addApprovedAdmin",
      "outputs": [
        {
          "internalType": "address",
          "name": "",
          "type": "address"
        }
      ],
      "stateMutability": "nonpayable",
      "type": "function"
    },
    {
      "inputs": [],
      "name": "getPoolAddress",
      "outputs": [
        {
          "internalType": "address",
          "name": "",
          "type": "address"
        }
      ],
      "stateMutability": "view",
      "type": "function"
    },
    {
      "inputs": [
        {
          "internalType": "address",
          "name": "_from",
          "type": "address"
        },
        {
          "internalType": "uint256",
          "name": "_max_amount",
          "type": "uint256"
        }
      ],
      "name": "getPoolShare",
      "outputs": [
        {
          "internalType": "uint256",
          "name": "",
          "type": "uint256"
        }
      ],
      "stateMutability": "nonpayable",
      "type": "function"
    },
    {
      "inputs": [
        {
          "internalType": "address",
          "name": "_owner",
          "type": "address"
        },
        {
          "internalType": "address",
          "name": "_pool_address",
          "type": "address"
        }
      ],
      "name": "initialize",
      "outputs": [],
      "stateMutability": "nonpayable",
      "type": "function"
    },
    {
      "inputs": [],
      "name": "owner",
      "outputs": [
        {
          "internalType": "address",
          "name": "",
          "type": "address"
        }
      ],
      "stateMutability": "view",
      "type": "function"
    },
    {
      "inputs": [
        {
          "internalType": "address",
          "name": "_admin",
          "type": "address"
        }
      ],
      "name": "removeApprovedAdmin",
      "outputs": [
        {
          "internalType": "address",
          "name": "",
          "type": "address"
        }
      ],
      "stateMutability": "nonpayable",
      "type": "function"
    },
    {
      "inputs": [],
      "name": "renounceOwnership",
      "outputs": [],
      "stateMutability": "nonpayable",
      "type": "function"
    },
    {
      "inputs": [
        {
          "internalType": "address",
          "name": "_from",
          "type": "address"
        },
        {
          "internalType": "address",
          "name": "_pool_address",
          "type": "address"
        }
      ],
      "name": "setPoolAddress",
      "outputs": [
        {
          "internalType": "address",
          "name": "",
          "type": "address"
        }
      ],
      "stateMutability": "nonpayable",
      "type": "function"
    },
    {
      "inputs": [
        {
          "internalType": "address",
          "name": "_pool_address",
          "type": "address"
        }
      ],
      "name": "setPoolAddress",
      "outputs": [
        {
          "internalType": "address",
          "name": "",
          "type": "address"
        }
      ],
      "stateMutability": "nonpayable",
      "type": "function"
    },
    {
      "inputs": [
        {
          "internalType": "address",
          "name": "newOwner",
          "type": "address"
        }
      ],
      "name": "transferOwnership",
      "outputs": [],
      "stateMutability": "nonpayable",
      "type": "function"
    }
  ],
  "bytecode": "0x6080604052609b80546001600160a01b03191673cda4770d65b4211364cb870ad6be19e7ef1d65f417905534801561003657600080fd5b506112f0806100466000396000f3fe608060405234801561001057600080fd5b50600436106100be5760003560e01c8063bd9caa5811610076578063f2fde38b1161005b578063f2fde38b146101d7578063f4006519146101fd578063f586c6d914610223576100be565b8063bd9caa5814610173578063e9e15b4f146101b1576100be565b8063715018a6116100a7578063715018a61461013d578063771901a5146101455780638da5cb5b1461016b576100be565b8063485cc955146100c35780635894ffcf146100f3575b600080fd5b6100f1600480360360408110156100d957600080fd5b506001600160a01b038135811691602001351661022b565b005b6101216004803603604081101561010957600080fd5b506001600160a01b038135811691602001351661035f565b604080516001600160a01b039092168252519081900360200190f35b6100f1610495565b6101216004803603602081101561015b57600080fd5b50356001600160a01b0316610553565b610121610701565b61019f6004803603604081101561018957600080fd5b506001600160a01b038135169060200135610710565b60408051918252519081900360200190f35b610121600480360360208110156101c757600080fd5b50356001600160a01b0316610823565b6100f1600480360360208110156101ed57600080fd5b50356001600160a01b03166109a3565b6101216004803603602081101561021357600080fd5b50356001600160a01b0316610ab8565b610121610c35565b600054610100900460ff16806102445750610244610cda565b80610252575060005460ff16155b61028d5760405162461bcd60e51b815260040180806020018281038252602e815260200180611243602e913960400191505060405180910390fd5b600054610100900460ff161580156102b8576000805460ff1961ff0019909116610100171660011790555b606680546001600160a01b038085166001600160a01b03199283168117909355609980548316909317909255609b54609a80548316918416919091179055606580546001810182556000919091527f8ff97419363ffd7000167f130ef7168fbea05faf9251824ca5043f113cc6a7c70180549286169290911691909117905561033f610ceb565b610348836109a3565b801561035a576000805461ff00191690555b505050565b6000336000805b6065548110156103af57826001600160a01b03166065828154811061038757fe5b6000918252602090912001546001600160a01b031614156103a757600191505b600101610366565b506001811515146103f15760405162461bcd60e51b81526004018080602001828103825260298152602001806112926029913960400191505060405180910390fd5b846000805b60655481101561043f57826001600160a01b03166065828154811061041757fe5b6000918252602090912001546001600160a01b0316141561043757600191505b6001016103f6565b506001811515146104815760405162461bcd60e51b81526004018080602001828103825260298152602001806112926029913960400191505060405180910390fd5b61048a86610823565b979650505050505050565b61049d610d9d565b6001600160a01b03166104ae610701565b6001600160a01b031614610509576040805162461bcd60e51b815260206004820181905260248201527f4f776e61626c653a2063616c6c6572206973206e6f7420746865206f776e6572604482015290519081900360640190fd5b6033546040516000916001600160a01b0316907f8be0079c531659141344cd1fd0a4f28419497f9722a3daafe3b4186f6b6457e0908390a3603380546001600160a01b0319169055565b6000816000805b6065548110156105a357826001600160a01b03166065828154811061057b57fe5b6000918252602090912001546001600160a01b0316141561059b57600191505b60010161055a565b5080156105e15760405162461bcd60e51b815260040180806020018281038252602d815260200180611216602d913960400191505060405180910390fd5b6105e9610d9d565b6001600160a01b03166105fa610701565b6001600160a01b031614610655576040805162461bcd60e51b815260206004820181905260248201527f4f776e61626c653a2063616c6c6572206973206e6f7420746865206f776e6572604482015290519081900360640190fd5b6001600160a01b0384166106b0576040805162461bcd60e51b815260206004820152601760248201527f4d75737420626520612076616c69642061646472657373000000000000000000604482015290519081900360640190fd5b5050606580546001810182556000919091527f8ff97419363ffd7000167f130ef7168fbea05faf9251824ca5043f113cc6a7c70180546001600160a01b0319166001600160a01b0384161790555090565b6033546001600160a01b031690565b60008160008111610768576040805162461bcd60e51b815260206004820181905260248201527f496e707574206d7573742062652067726561746572207468616e207a65726f2e604482015290519081900360640190fd5b609954604080517f1c5b092300000000000000000000000000000000000000000000000000000000815290516000926001600160a01b031691631c5b092391600480830192602092919082900301818787803b1580156107c757600080fd5b505af11580156107db573d6000803e3d6000fd5b505050506040513d60208110156107f157600080fd5b5051905060006108018683610da1565b9050600061081182846003610eec565b905061048a8187026103e86002610eec565b6000336000805b60655481101561087357826001600160a01b03166065828154811061084b57fe5b6000918252602090912001546001600160a01b0316141561086b57600191505b60010161082a565b506001811515146108b55760405162461bcd60e51b81526004018080602001828103825260298152602001806112926029913960400191505060405180910390fd5b6002606754141561090d576040805162461bcd60e51b815260206004820152601f60248201527f5265656e7472616e637947756172643a207265656e7472616e742063616c6c00604482015290519081900360640190fd5b60026067556001600160a01b03841661096d576040805162461bcd60e51b815260206004820152601760248201527f4d75737420626520612076616c69642061646472657373000000000000000000604482015290519081900360640190fd5b5050606680546001600160a01b0384166001600160a01b0319918216811790925560998054909116909117905550600160675590565b6109ab610d9d565b6001600160a01b03166109bc610701565b6001600160a01b031614610a17576040805162461bcd60e51b815260206004820181905260248201527f4f776e61626c653a2063616c6c6572206973206e6f7420746865206f776e6572604482015290519081900360640190fd5b6001600160a01b038116610a5c5760405162461bcd60e51b81526004018080602001828103825260268152602001806111f06026913960400191505060405180910390fd5b6033546040516001600160a01b038084169216907f8be0079c531659141344cd1fd0a4f28419497f9722a3daafe3b4186f6b6457e090600090a3603380546001600160a01b0319166001600160a01b0392909216919091179055565b6000816000805b606554811015610b0857826001600160a01b031660658281548110610ae057fe5b6000918252602090912001546001600160a01b03161415610b0057600191505b600101610abf565b50600181151514610b4a5760405162461bcd60e51b81526004018080602001828103825260298152602001806112926029913960400191505060405180910390fd5b610b52610d9d565b6001600160a01b0316610b63610701565b6001600160a01b031614610bbe576040805162461bcd60e51b815260206004820181905260248201527f4f776e61626c653a2063616c6c6572206973206e6f7420746865206f776e6572604482015290519081900360640190fd5b60005b606554811015610c2c57846001600160a01b031660658281548110610be257fe5b6000918252602090912001546001600160a01b03161415610c245760658181548110610c0a57fe5b600091825260209091200180546001600160a01b03191690555b600101610bc1565b50929392505050565b6000336000805b606554811015610c8557826001600160a01b031660658281548110610c5d57fe5b6000918252602090912001546001600160a01b03161415610c7d57600191505b600101610c3c565b50600181151514610cc75760405162461bcd60e51b81526004018080602001828103825260298152602001806112926029913960400191505060405180910390fd5b6066546001600160a01b03169250505090565b6000610ce530610f2f565b15905090565b600054610100900460ff1680610d045750610d04610cda565b80610d12575060005460ff16155b610d4d5760405162461bcd60e51b815260040180806020018281038252602e815260200180611243602e913960400191505060405180910390fd5b600054610100900460ff16158015610d78576000805460ff1961ff0019909116610100171660011790555b610d80610f35565b610d88610fd5565b8015610d9a576000805461ff00191690555b50565b3390565b600080609a60009054906101000a90046001600160a01b03166001600160a01b03166318160ddd6040518163ffffffff1660e01b8152600401602060405180830381600087803b158015610df457600080fd5b505af1158015610e08573d6000803e3d6000fd5b505050506040513d6020811015610e1e57600080fd5b5051905080610e31576000915050610ee6565b609a54604080517f70a082310000000000000000000000000000000000000000000000000000000081526001600160a01b038781166004830152915160009392909216916370a082319160248082019260209290919082900301818787803b158015610e9c57600080fd5b505af1158015610eb0573d6000803e3d6000fd5b505050506040513d6020811015610ec657600080fd5b505190506000610ee083610eda84886110ce565b9061112e565b93505050505b92915050565b600080610f07610efd846001611195565b8690600a0a6110ce565b90506000610f25600a610eda6005610f1f868a61112e565b90611195565b9695505050505050565b3b151590565b600054610100900460ff1680610f4e5750610f4e610cda565b80610f5c575060005460ff16155b610f975760405162461bcd60e51b815260040180806020018281038252602e815260200180611243602e913960400191505060405180910390fd5b600054610100900460ff16158015610d88576000805460ff1961ff0019909116610100171660011790558015610d9a576000805461ff001916905550565b600054610100900460ff1680610fee5750610fee610cda565b80610ffc575060005460ff16155b6110375760405162461bcd60e51b815260040180806020018281038252602e815260200180611243602e913960400191505060405180910390fd5b600054610100900460ff16158015611062576000805460ff1961ff0019909116610100171660011790555b600061106c610d9d565b603380546001600160a01b0319166001600160a01b038316908117909155604051919250906000907f8be0079c531659141344cd1fd0a4f28419497f9722a3daafe3b4186f6b6457e0908290a3508015610d9a576000805461ff001916905550565b6000826110dd57506000610ee6565b828202828482816110ea57fe5b04146111275760405162461bcd60e51b81526004018080602001828103825260218152602001806112716021913960400191505060405180910390fd5b9392505050565b6000808211611184576040805162461bcd60e51b815260206004820152601a60248201527f536166654d6174683a206469766973696f6e206279207a65726f000000000000604482015290519081900360640190fd5b81838161118d57fe5b049392505050565b600082820183811015611127576040805162461bcd60e51b815260206004820152601b60248201527f536166654d6174683a206164646974696f6e206f766572666c6f770000000000604482015290519081900360640190fdfe4f776e61626c653a206e6577206f776e657220697320746865207a65726f206164647265737346756e6374696f6e2063616c6c6572206d757374206e6f7420626520616e20616461707465722061646d696e2e496e697469616c697a61626c653a20636f6e747261637420697320616c726561647920696e697469616c697a6564536166654d6174683a206d756c7469706c69636174696f6e206f766572666c6f7746756e6374696f6e2063616c6c6572206d75737420626520616e20616461707465722061646d696e2ea2646970667358221220d55708e1f9fb7a098915661503dd0064722d560b6063a8d9bae674cc98c7bdc564736f6c63430007030033",
  "linkReferences": {},
  "deployedLinkReferences": {}
}